{
  "_format": "hh-sol-artifact-1",
  "contractName": "LotteryToken",
  "sourceName": "contracts/Token.sol",
  "abi": [
    {
      "inputs": [
        {
          "internalType": "string",
          "name": "name",
          "type": "string"
        },
        {
          "internalType": "string",
          "name": "symbol",
          "type": "string"
        }
      ],
      "stateMutability": "nonpayable",
      "type": "constructor"
    },
    {
      "anonymous": false,
      "inputs": [
        {
          "indexed": true,
          "internalType": "address",
          "name": "owner",
          "type": "address"
        },
        {
          "indexed": true,
          "internalType": "address",
          "name": "spender",
          "type": "address"
        },
        {
          "indexed": false,
          "internalType": "uint256",
          "name": "value",
          "type": "uint256"
        }
      ],
      "name": "Approval",
      "type": "event"
    },
    {
      "anonymous": false,
      "inputs": [
        {
          "indexed": true,
          "internalType": "bytes32",
          "name": "role",
          "type": "bytes32"
        },
        {
          "indexed": true,
          "internalType": "bytes32",
          "name": "previousAdminRole",
          "type": "bytes32"
        },
        {
          "indexed": true,
          "internalType": "bytes32",
          "name": "newAdminRole",
          "type": "bytes32"
        }
      ],
      "name": "RoleAdminChanged",
      "type": "event"
    },
    {
      "anonymous": false,
      "inputs": [
        {
          "indexed": true,
          "internalType": "bytes32",
          "name": "role",
          "type": "bytes32"
        },
        {
          "indexed": true,
          "internalType": "address",
          "name": "account",
          "type": "address"
        },
        {
          "indexed": true,
          "internalType": "address",
          "name": "sender",
          "type": "address"
        }
      ],
      "name": "RoleGranted",
      "type": "event"
    },
    {
      "anonymous": false,
      "inputs": [
        {
          "indexed": true,
          "internalType": "bytes32",
          "name": "role",
          "type": "bytes32"
        },
        {
          "indexed": true,
          "internalType": "address",
          "name": "account",
          "type": "address"
        },
        {
          "indexed": true,
          "internalType": "address",
          "name": "sender",
          "type": "address"
        }
      ],
      "name": "RoleRevoked",
      "type": "event"
    },
    {
      "anonymous": false,
      "inputs": [
        {
          "indexed": true,
          "internalType": "address",
          "name": "from",
          "type": "address"
        },
        {
          "indexed": true,
          "internalType": "address",
          "name": "to",
          "type": "address"
        },
        {
          "indexed": false,
          "internalType": "uint256",
          "name": "value",
          "type": "uint256"
        }
      ],
      "name": "Transfer",
      "type": "event"
    },
    {
      "inputs": [],
      "name": "DEFAULT_ADMIN_ROLE",
      "outputs": [
        {
          "internalType": "bytes32",
          "name": "",
          "type": "bytes32"
        }
      ],
      "stateMutability": "view",
      "type": "function"
    },
    {
      "inputs": [],
      "name": "MINTER_ROLE",
      "outputs": [
        {
          "internalType": "bytes32",
          "name": "",
          "type": "bytes32"
        }
      ],
      "stateMutability": "view",
      "type": "function"
    },
    {
      "inputs": [
        {
          "internalType": "address",
          "name": "owner",
          "type": "address"
        },
        {
          "internalType": "address",
          "name": "spender",
          "type": "address"
        }
      ],
      "name": "allowance",
      "outputs": [
        {
          "internalType": "uint256",
          "name": "",
          "type": "uint256"
        }
      ],
      "stateMutability": "view",
      "type": "function"
    },
    {
      "inputs": [
        {
          "internalType": "address",
          "name": "spender",
          "type": "address"
        },
        {
          "internalType": "uint256",
          "name": "amount",
          "type": "uint256"
        }
      ],
      "name": "approve",
      "outputs": [
        {
          "internalType": "bool",
          "name": "",
          "type": "bool"
        }
      ],
      "stateMutability": "nonpayable",
      "type": "function"
    },
    {
      "inputs": [
        {
          "internalType": "address",
          "name": "account",
          "type": "address"
        }
      ],
      "name": "balanceOf",
      "outputs": [
        {
          "internalType": "uint256",
          "name": "",
          "type": "uint256"
        }
      ],
      "stateMutability": "view",
      "type": "function"
    },
    {
      "inputs": [
        {
          "internalType": "uint256",
          "name": "amount",
          "type": "uint256"
        }
      ],
      "name": "burn",
      "outputs": [],
      "stateMutability": "nonpayable",
      "type": "function"
    },
    {
      "inputs": [
        {
          "internalType": "address",
          "name": "account",
          "type": "address"
        },
        {
          "internalType": "uint256",
          "name": "amount",
          "type": "uint256"
        }
      ],
      "name": "burnFrom",
      "outputs": [],
      "stateMutability": "nonpayable",
      "type": "function"
    },
    {
      "inputs": [],
      "name": "decimals",
      "outputs": [
        {
          "internalType": "uint8",
          "name": "",
          "type": "uint8"
        }
      ],
      "stateMutability": "view",
      "type": "function"
    },
    {
      "inputs": [
        {
          "internalType": "address",
          "name": "spender",
          "type": "address"
        },
        {
          "internalType": "uint256",
          "name": "subtractedValue",
          "type": "uint256"
        }
      ],
      "name": "decreaseAllowance",
      "outputs": [
        {
          "internalType": "bool",
          "name": "",
          "type": "bool"
        }
      ],
      "stateMutability": "nonpayable",
      "type": "function"
    },
    {
      "inputs": [
        {
          "internalType": "bytes32",
          "name": "role",
          "type": "bytes32"
        }
      ],
      "name": "getRoleAdmin",
      "outputs": [
        {
          "internalType": "bytes32",
          "name": "",
          "type": "bytes32"
        }
      ],
      "stateMutability": "view",
      "type": "function"
    },
    {
      "inputs": [
        {
          "internalType": "bytes32",
          "name": "role",
          "type": "bytes32"
        },
        {
          "internalType": "address",
          "name": "account",
          "type": "address"
        }
      ],
      "name": "grantRole",
      "outputs": [],
      "stateMutability": "nonpayable",
      "type": "function"
    },
    {
      "inputs": [
        {
          "internalType": "bytes32",
          "name": "role",
          "type": "bytes32"
        },
        {
          "internalType": "address",
          "name": "account",
          "type": "address"
        }
      ],
      "name": "hasRole",
      "outputs": [
        {
          "internalType": "bool",
          "name": "",
          "type": "bool"
        }
      ],
      "stateMutability": "view",
      "type": "function"
    },
    {
      "inputs": [
        {
          "internalType": "address",
          "name": "spender",
          "type": "address"
        },
        {
          "internalType": "uint256",
          "name": "addedValue",
          "type": "uint256"
        }
      ],
      "name": "increaseAllowance",
      "outputs": [
        {
          "internalType": "bool",
          "name": "",
          "type": "bool"
        }
      ],
      "stateMutability": "nonpayable",
      "type": "function"
    },
    {
      "inputs": [
        {
          "internalType": "address",
          "name": "to",
          "type": "address"
        },
        {
          "internalType": "uint256",
          "name": "amount",
          "type": "uint256"
        }
      ],
      "name": "mint",
      "outputs": [],
      "stateMutability": "nonpayable",
      "type": "function"
    },
    {
      "inputs": [],
      "name": "name",
      "outputs": [
        {
          "internalType": "string",
          "name": "",
          "type": "string"
        }
      ],
      "stateMutability": "view",
      "type": "function"
    },
    {
      "inputs": [
        {
          "internalType": "bytes32",
          "name": "role",
          "type": "bytes32"
        },
        {
          "internalType": "address",
          "name": "account",
          "type": "address"
        }
      ],
      "name": "renounceRole",
      "outputs": [],
      "stateMutability": "nonpayable",
      "type": "function"
    },
    {
      "inputs": [
        {
          "internalType": "bytes32",
          "name": "role",
          "type": "bytes32"
        },
        {
          "internalType": "address",
          "name": "account",
          "type": "address"
        }
      ],
      "name": "revokeRole",
      "outputs": [],
      "stateMutability": "nonpayable",
      "type": "function"
    },
    {
      "inputs": [
        {
          "internalType": "bytes4",
          "name": "interfaceId",
          "type": "bytes4"
        }
      ],
      "name": "supportsInterface",
      "outputs": [
        {
          "internalType": "bool",
          "name": "",
          "type": "bool"
        }
      ],
      "stateMutability": "view",
      "type": "function"
    },
    {
      "inputs": [],
      "name": "symbol",
      "outputs": [
        {
          "internalType": "string",
          "name": "",
          "type": "string"
        }
      ],
      "stateMutability": "view",
      "type": "function"
    },
    {
      "inputs": [],
      "name": "totalSupply",
      "outputs": [
        {
          "internalType": "uint256",
          "name": "",
          "type": "uint256"
        }
      ],
      "stateMutability": "view",
      "type": "function"
    },
    {
      "inputs": [
        {
          "internalType": "address",
          "name": "to",
          "type": "address"
        },
        {
          "internalType": "uint256",
          "name": "amount",
          "type": "uint256"
        }
      ],
      "name": "transfer",
      "outputs": [
        {
          "internalType": "bool",
          "name": "",
          "type": "bool"
        }
      ],
      "stateMutability": "nonpayable",
      "type": "function"
    },
    {
      "inputs": [
        {
          "internalType": "address",
          "name": "from",
          "type": "address"
        },
        {
          "internalType": "address",
          "name": "to",
          "type": "address"
        },
        {
          "internalType": "uint256",
          "name": "amount",
          "type": "uint256"
        }
      ],
      "name": "transferFrom",
      "outputs": [
        {
          "internalType": "bool",
          "name": "",
          "type": "bool"
        }
      ],
      "stateMutability": "nonpayable",
      "type": "function"
    }
  ],
  "bytecode": "0x60806040523480156200001157600080fd5b5060405162001794380380620017948339810160408190526200003491620002c1565b8151829082906200004d9060039060208501906200014e565b508051620000639060049060208401906200014e565b506200007591506000905033620000a9565b620000a17f9f2df0fed2c77648de5860a4cc508cd0818c85b8b8a1ab4ceeef8d981c8956a633620000a9565b505062000368565b60008281526005602090815260408083206001600160a01b038516845290915290205460ff166200014a5760008281526005602090815260408083206001600160a01b03851684529091529020805460ff19166001179055620001093390565b6001600160a01b0316816001600160a01b0316837f2f8788117e7eff1d82e926ec794901d17c78024a50270940304540a733656f0d60405160405180910390a45b5050565b8280546200015c906200032b565b90600052602060002090601f016020900481019282620001805760008555620001cb565b82601f106200019b57805160ff1916838001178555620001cb565b82800160010185558215620001cb579182015b82811115620001cb578251825591602001919060010190620001ae565b50620001d9929150620001dd565b5090565b5b80821115620001d95760008155600101620001de565b634e487b7160e01b600052604160045260246000fd5b600082601f8301126200021c57600080fd5b81516001600160401b0380821115620002395762000239620001f4565b604051601f8301601f19908116603f01168101908282118183101715620002645762000264620001f4565b816040528381526020925086838588010111156200028157600080fd5b600091505b83821015620002a5578582018301518183018401529082019062000286565b83821115620002b75760008385830101525b9695505050505050565b60008060408385031215620002d557600080fd5b82516001600160401b0380821115620002ed57600080fd5b620002fb868387016200020a565b935060208501519150808211156200031257600080fd5b5062000321858286016200020a565b9150509250929050565b600181811c908216806200034057607f821691505b602082108114156200036257634e487b7160e01b600052602260045260246000fd5b50919050565b61141c80620003786000396000f3fe608060405234801561001057600080fd5b50600436106101825760003560e01c806342966c68116100d8578063a217fddf1161008c578063d539139311610066578063d53913931461033a578063d547741f14610361578063dd62ed3e1461037457600080fd5b8063a217fddf1461030c578063a457c2d714610314578063a9059cbb1461032757600080fd5b806379cc6790116100bd57806379cc6790146102b857806391d14854146102cb57806395d89b411461030457600080fd5b806342966c681461027c57806370a082311461028f57600080fd5b8063248a9ca31161013a57806336568abe1161011457806336568abe14610243578063395093511461025657806340c10f191461026957600080fd5b8063248a9ca3146101fc5780632f2ff15d1461021f578063313ce5671461023457600080fd5b8063095ea7b31161016b578063095ea7b3146101c457806318160ddd146101d757806323b872dd146101e957600080fd5b806301ffc9a71461018757806306fdde03146101af575b600080fd5b61019a6101953660046110ed565b6103ad565b60405190151581526020015b60405180910390f35b6101b7610446565b6040516101a6919061115b565b61019a6101d23660046111aa565b6104d8565b6002545b6040519081526020016101a6565b61019a6101f73660046111d4565b6104f0565b6101db61020a366004611210565b60009081526005602052604090206001015490565b61023261022d366004611229565b610514565b005b604051601281526020016101a6565b610232610251366004611229565b61053e565b61019a6102643660046111aa565b6105cf565b6102326102773660046111aa565b61060e565b61023261028a366004611210565b610642565b6101db61029d366004611255565b6001600160a01b031660009081526020819052604090205490565b6102326102c63660046111aa565b61064f565b61019a6102d9366004611229565b60009182526005602090815260408084206001600160a01b0393909316845291905290205460ff1690565b6101b7610664565b6101db600081565b61019a6103223660046111aa565b610673565b61019a6103353660046111aa565b61071d565b6101db7f9f2df0fed2c77648de5860a4cc508cd0818c85b8b8a1ab4ceeef8d981c8956a681565b61023261036f366004611229565b61072b565b6101db610382366004611270565b6001600160a01b03918216600090815260016020908152604080832093909416825291909152205490565b60007fffffffff0000000000000000000000000000000000000000000000000000000082167f7965db0b00000000000000000000000000000000000000000000000000000000148061044057507f01ffc9a7000000000000000000000000000000000000000000000000000000007fffffffff000000000000000000000000000000000000000000000000000000008316145b92915050565b6060600380546104559061129a565b80601f01602080910402602001604051908101604052809291908181526020018280546104819061129a565b80156104ce5780601f106104a3576101008083540402835291602001916104ce565b820191906000526020600020905b8154815290600101906020018083116104b157829003601f168201915b5050505050905090565b6000336104e6818585610750565b5060019392505050565b6000336104fe8582856108a8565b61050985858561093a565b506001949350505050565b60008281526005602052604090206001015461052f81610b27565b6105398383610b31565b505050565b6001600160a01b03811633146105c15760405162461bcd60e51b815260206004820152602f60248201527f416363657373436f6e74726f6c3a2063616e206f6e6c792072656e6f756e636560448201527f20726f6c657320666f722073656c66000000000000000000000000000000000060648201526084015b60405180910390fd5b6105cb8282610bd3565b5050565b3360008181526001602090815260408083206001600160a01b03871684529091528120549091906104e690829086906106099087906112eb565b610750565b7f9f2df0fed2c77648de5860a4cc508cd0818c85b8b8a1ab4ceeef8d981c8956a661063881610b27565b6105398383610c56565b61064c3382610d15565b50565b61065a8233836108a8565b6105cb8282610d15565b6060600480546104559061129a565b3360008181526001602090815260408083206001600160a01b0387168452909152812054909190838110156107105760405162461bcd60e51b815260206004820152602560248201527f45524332303a2064656372656173656420616c6c6f77616e63652062656c6f7760448201527f207a65726f00000000000000000000000000000000000000000000000000000060648201526084016105b8565b6105098286868403610750565b6000336104e681858561093a565b60008281526005602052604090206001015461074681610b27565b6105398383610bd3565b6001600160a01b0383166107cb5760405162461bcd60e51b8152602060048201526024808201527f45524332303a20617070726f76652066726f6d20746865207a65726f2061646460448201527f726573730000000000000000000000000000000000000000000000000000000060648201526084016105b8565b6001600160a01b0382166108475760405162461bcd60e51b815260206004820152602260248201527f45524332303a20617070726f766520746f20746865207a65726f20616464726560448201527f737300000000000000000000000000000000000000000000000000000000000060648201526084016105b8565b6001600160a01b0383811660008181526001602090815260408083209487168084529482529182902085905590518481527f8c5be1e5ebec7d5bd14f71427d1e84f3dd0314c0f7b2291e5b200ac8c7c3b925910160405180910390a3505050565b6001600160a01b03838116600090815260016020908152604080832093861683529290522054600019811461093457818110156109275760405162461bcd60e51b815260206004820152601d60248201527f45524332303a20696e73756666696369656e7420616c6c6f77616e636500000060448201526064016105b8565b6109348484848403610750565b50505050565b6001600160a01b0383166109b65760405162461bcd60e51b815260206004820152602560248201527f45524332303a207472616e736665722066726f6d20746865207a65726f20616460448201527f647265737300000000000000000000000000000000000000000000000000000060648201526084016105b8565b6001600160a01b038216610a325760405162461bcd60e51b815260206004820152602360248201527f45524332303a207472616e7366657220746f20746865207a65726f206164647260448201527f657373000000000000000000000000000000000000000000000000000000000060648201526084016105b8565b6001600160a01b03831660009081526020819052604090205481811015610ac15760405162461bcd60e51b815260206004820152602660248201527f45524332303a207472616e7366657220616d6f756e742065786365656473206260448201527f616c616e6365000000000000000000000000000000000000000000000000000060648201526084016105b8565b6001600160a01b03848116600081815260208181526040808320878703905593871680835291849020805487019055925185815290927fddf252ad1be2c89b69c2b068fc378daa952ba7f163c4a11628f55a4df523b3ef910160405180910390a3610934565b61064c8133610e7e565b60008281526005602090815260408083206001600160a01b038516845290915290205460ff166105cb5760008281526005602090815260408083206001600160a01b03851684529091529020805460ff19166001179055610b8f3390565b6001600160a01b0316816001600160a01b0316837f2f8788117e7eff1d82e926ec794901d17c78024a50270940304540a733656f0d60405160405180910390a45050565b60008281526005602090815260408083206001600160a01b038516845290915290205460ff16156105cb5760008281526005602090815260408083206001600160a01b0385168085529252808320805460ff1916905551339285917ff6391f5c32d9c69d2a47ea670b442974b53935d1edc7fd64eb21e047a839171b9190a45050565b6001600160a01b038216610cac5760405162461bcd60e51b815260206004820152601f60248201527f45524332303a206d696e7420746f20746865207a65726f20616464726573730060448201526064016105b8565b8060026000828254610cbe91906112eb565b90915550506001600160a01b038216600081815260208181526040808320805486019055518481527fddf252ad1be2c89b69c2b068fc378daa952ba7f163c4a11628f55a4df523b3ef910160405180910390a35050565b6001600160a01b038216610d915760405162461bcd60e51b815260206004820152602160248201527f45524332303a206275726e2066726f6d20746865207a65726f2061646472657360448201527f730000000000000000000000000000000000000000000000000000000000000060648201526084016105b8565b6001600160a01b03821660009081526020819052604090205481811015610e205760405162461bcd60e51b815260206004820152602260248201527f45524332303a206275726e20616d6f756e7420657863656564732062616c616e60448201527f636500000000000000000000000000000000000000000000000000000000000060648201526084016105b8565b6001600160a01b0383166000818152602081815260408083208686039055600280548790039055518581529192917fddf252ad1be2c89b69c2b068fc378daa952ba7f163c4a11628f55a4df523b3ef910160405180910390a3505050565b60008281526005602090815260408083206001600160a01b038516845290915290205460ff166105cb57610eb181610ef3565b610ebc836020610f05565b604051602001610ecd929190611303565b60408051601f198184030181529082905262461bcd60e51b82526105b89160040161115b565b60606104406001600160a01b03831660145b60606000610f14836002611384565b610f1f9060026112eb565b67ffffffffffffffff811115610f3757610f376113a3565b6040519080825280601f01601f191660200182016040528015610f61576020820181803683370190505b5090507f300000000000000000000000000000000000000000000000000000000000000081600081518110610f9857610f986113b9565b60200101906001600160f81b031916908160001a9053507f780000000000000000000000000000000000000000000000000000000000000081600181518110610fe357610fe36113b9565b60200101906001600160f81b031916908160001a9053506000611007846002611384565b6110129060016112eb565b90505b6001811115611097577f303132333435363738396162636465660000000000000000000000000000000085600f1660108110611053576110536113b9565b1a60f81b828281518110611069576110696113b9565b60200101906001600160f81b031916908160001a90535060049490941c93611090816113cf565b9050611015565b5083156110e65760405162461bcd60e51b815260206004820181905260248201527f537472696e67733a20686578206c656e67746820696e73756666696369656e7460448201526064016105b8565b9392505050565b6000602082840312156110ff57600080fd5b81357fffffffff00000000000000000000000000000000000000000000000000000000811681146110e657600080fd5b60005b8381101561114a578181015183820152602001611132565b838111156109345750506000910152565b602081526000825180602084015261117a81604085016020870161112f565b601f01601f19169190910160400192915050565b80356001600160a01b03811681146111a557600080fd5b919050565b600080604083850312156111bd57600080fd5b6111c68361118e565b946020939093013593505050565b6000806000606084860312156111e957600080fd5b6111f28461118e565b92506112006020850161118e565b9150604084013590509250925092565b60006020828403121561122257600080fd5b5035919050565b6000806040838503121561123c57600080fd5b8235915061124c6020840161118e565b90509250929050565b60006020828403121561126757600080fd5b6110e68261118e565b6000806040838503121561128357600080fd5b61128c8361118e565b915061124c6020840161118e565b600181811c908216806112ae57607f821691505b602082108114156112cf57634e487b7160e01b600052602260045260246000fd5b50919050565b634e487b7160e01b600052601160045260246000fd5b600082198211156112fe576112fe6112d5565b500190565b7f416363657373436f6e74726f6c3a206163636f756e742000000000000000000081526000835161133b81601785016020880161112f565b7f206973206d697373696e6720726f6c6520000000000000000000000000000000601791840191820152835161137881602884016020880161112f565b01602801949350505050565b600081600019048311821515161561139e5761139e6112d5565b500290565b634e487b7160e01b600052604160045260246000fd5b634e487b7160e01b600052603260045260246000fd5b6000816113de576113de6112d5565b50600019019056fea2646970667358221220f8f2d20cf47771dd34671857761b3f545803c3f78ee0e8e05af8fbbbaf19b7ea64736f6c63430008090033",
  "linkReferences": {},
  "deployedLinkReferences": {}
}